:08447800410A3500410A36003B
:0300A0007F0022BC
:10715B00EF1460071460102402701AE4FBFDFF1299
:10716B006C0F50037F0122E4FB7D3A7F011268D83C
:10717B0050037F0122E4FF126FC59007F1120DFB44
:0F718B0000000000E4F50BF50AF509F508FF22F6
:10776E007F03126FC590097AA3E0FF1200A0027189
:01777E005BAF
:01789B0022CA
:1072C00043BA801274D21277211277DE12783D12FF
:1072D000781012735FD2AF12776E1242CB126AF936
:1072E000AFC7EF54BF6440700343C720300DF17D3A
:0872F000017FFF12775B80E8CB
:106AF90053B2FC43B10390FE077480F090FE07E0A7
:106B090030E0F990FE017402F090FE00740CF0750B
:106B1900F490E4FDFF1277397D817F011277397D89
:106B2900017F071277397D027F091277397D077F47
:106B39000B1277397D017F01127739900A1574029A
:0E6B4900F0E4A3F0900A1CF0A3F043AF80220A
:09761700E4FD7F0E1277397F11AA
:10762000E5FC20E7FBEF4480F5FCE5FC20E7FBAF41
:01763000EC6D
:017631002236
:047735007D407F1103
:0F773900E5FC20E7FBEF547FF5FCAF058FEC225A
:0D721200900028EBF0A3EAF0A3E9F0AE072E
:10721F007F16127620AD07AC05AF051DEF601BAFD3
:10722F0006127620900028E0FBA3E475F001120B04
:0C723F00C0A9F0FAEF120B0F80DFAF04C3
:01724B002220
:10732C0090002BEBF0A3EAF0A3E9F0AE0790002E4F
:10733C00E0FF14F0EF601BAF0690002BE0FBA3E422
:10734C0075F001120BC0A9F0FA120AC9FD127739B7
:03735C0080DB22B1
:0300CB00025FD6FB
:105FD600C0E0C0F0C083C082C0D075D000C000C091
:0D5FE60001C002C003C004C005C006C00712
:105FF300C20A7F0612762090001AEFF07F02127613
:1060030020A3EFF07F04127620A3EFF090001AE0B4
:1060130030E10312789C90001AE030E2031273928D
:1060230090001BE030E014126860200A0E90FE1707
:106033007401F0FD7FFF12775BD20A90001BE03002
:10604300E10312764D90001CE030E10312759C9041
:09605300001AE030E00312789D10
:10605C00D007D006D005D004D003D002D001D00098
:0B606C00D0D0D082D083D0F0D0E03242
:01789C0022C9
:10739200E4FDFF127739900A157402F0E4A3F00DB0
:1073A2007F0E1277397D487F111277397D017F0E6A
:1073B2001277397D907F14127739E4FD7F0E0277C0
:0173C2003991
:01789D0022C8
:10686000127617AE07EE30E20D54FBFD7F11127762
:1068700039E4900A16F0EE30E4084480FD7F1112EE
:106880007739900A16E024FD6047146047240470AD
:1068900046EE30E0427B017A0A790D7F20127212B7
:1068A000900A13E0FEA3E0FF1275FB900A13EEF0CE
:1068B000A3EFF0900A0DE0546024E0600B24E06048
:1068C0000A24407009026B570276F7027883027738
:0768D0009D02694C126EEA03
:0168D700229E
:0D779D00900A167405F07D607F11027739A7
:0C77F800900A167403F012773502694CF9
:0C780400E4900A16F07D487F11027739ED
:10694C00127617EF20E16B900A17E0FEA3E0FFD35D
:10695C009440EE940040067D407F40800090001EE5
:10696C00EFF0900A19E0FBA3E0FAA3E0F990002EF7
:10697C00EFF07F2012732C90001EE0FF7E00C3907E
:10698C000A18E09FF0900A17E09EF0900A1AEE8F1A
:10699C00F0120BAA900A17E07002A3E0700D7D0AAA
:1069AC007F11127739E4900A16F0227D027F1112C2
:0269BC00773929
:0169BE0022B6
:106EEA00127617EF30E043900A19E0FBA3E0FAA309
:106EFA00E0F97F20127212EFFDC3900A18E09DF0AC
:106F0A00900A17E09400F0900A1AE48FF0120BAA84
:106F1A00900A17E07002A3E0700D7D487F11127786
:0A6F2A0039E4900A16F022127735C0
:016F3400223A
:1076CB00900029E02420FF90002EEDF012732C7D0A
:0676DB00017F1102773966
:10774800ED2420FF127212AE07E4FD7F1412773980
:02775800AF067A
:01775A00220C
:087847007F11127620EF1322DD
:08784F007F14127620EF1322D2
:10764D007D01127619AE07EE30E503127735EE3077
:09765D00E207E4FD7F1112773908
:017666002201
:10759C007D017F0E1277397F14127620AE07EE3004
:1075AC00E6077D807F14127739EE30E003124EB47B
:0175BC0022AC
:1067DE001201000200000040BF3406FF000101025A
:1067EE0003010902200001010080FA0904000002E1
:1067FE00080650000705810240000007050102400F
:10680E00000004030904100352006100A900A9004E
:10681E006F006F006E00380352006100A900A900DE
:10682E006F006F006E00200046006C006100730068
:10683E00680020004500780070006C006F00720048
:10684E00650072002000440045004D004F0000001E
:02685E00010037
:104480005E098C1E033000300030003000300030F8
:10449000003000300030003000300030003000309C
:0144A000001B
:1076F700900A0EE024026006147006027880027574
:05770700BD12779D2278
:0378800002780487
:1075BD00900A1974FFF0A37468F0A3745CF0900A3C
:1075CD0013E0FFA3E0900A17CFF0A3EFF00277F8D6
:0378830002779DEC
:106B5700900A0EE0B40D00504F906B67F828287329
:106B6700026B8E026B91026BAF026B94026BAF02EA
:106B77006B97026B9A026B9D026BA0026BA3026B71
:106B8700A6026BA9026BAC024FD60261180262E83B
:106B9700026D0F024B18027886026BB30266CE02B3
:0C6BA70070DA0274FC02788912779D22DB
:104FD600900A0DE030E770900A10E0706A900A0FB0
:104FE600E07064900A13E07004A3E06402600302B8
:104FF60050E6900A0DE0540F14601914603C240228
:1050060060030250E6900A12E07006900A11E06012
:10501600190250E6900A15E0B4040C900A12E070EA
:1050260006900A11E060030250E6900A1974FFF038
:10503600A37468F0A3745C0250D8900A15E0B40417
:1050460006900A12E060030250E6900A11E0FE5450
:105056000F90001DF0EE146041248060030250E4BE
:1050660090001DE0FF7E007401A807088005C33389
:10507600CE33CED8F9FF900A1CE0FDEF5D900A19F9
:10508600600C74FFF0A37468F0A3745E800A74FF6A
:10509600F0A37468F0A3745C803890001DE0FF7E76
:1050A600007401A807088005C333CE33CED8F9FFB4
:1050B600900A1DE0FDEF5D900A19600C74FFF0A3E5
:1050C6007468F0A3745E800A74FFF0A37468F0A39A
:1050D600745CF0900A17E4F0A37402F08005800077
:0650E60002779D1277F82D
:0150EC0022A1
:10611800900A15E064047023900A0DE0B4021C9004
:106128000A12E07016900A10E07079900A0FE07079
:1061380073900A13E07002A3E060028067900A116E
:10614800E0FE540F90001DF0EE1460292480705476
:10615800900A1CE0FF90001DE0FDF8740108800221
:10616800C333D8FCF45F900A1CF07F0E1277397D98
:10617800407F118023900A1DE0FF90001DE0FDF88C
:106188007401088002C333D8FCF45F900A1DF07FC5
:106198000E1277397D807F14127739E4FD7F0E1255
:0A61A8007739800302779D12780416
:0161B20022CA
:1062E800900A15E064047023900A0DE0B4021C9033
:1062F8000A12E0707D900A10E07077900A0FE07043
:1063080071900A13E07002A3E060028065900A11A0
:10631800E0FE540F90001DF0EE14602824807052A7
:10632800900A1CE0FF90001DE0FDF874010880024F
:10633800C333D8FC4F900A1CF07F0E1277397D10BA
:106348007F118022900A1DE0FF90001DE0FDF87487
:1063580001088002C333D8FC4F900A1DF07F0E124B
:1063680077397D207F14127739E4FD7F0E12773953
:08637800800302779D127804F6
:0163800022FA
:106D0F00900A0DE07025900A12E0701F900A11E0B2
:106D1F007019900A10E07013900A0FE0C39480501E
:106D2F000A900A13E07002A3E0600302779D900AB5
:106D3F000FE090001DF0FDE4FF12773990001DE089
:106D4F00900A1560057403F080037402F012780442
:016D5F002211
:104B1800900A0DE020E703024C34900A10E024FECE
:104B2800602414603B24026003024C34900A197418
:104B3800FFF0A37467F0A374DEF0900A17E4F0A303
:104B48007412F0024C37900A1974FFF0A37467F0DE
:104B5800A374F0F0900A17E4F0A37420F0024C3725
:104B6800900A0FE014602714603E14605424036018
:104B780003024C32900A1974FFF0A37468F0A3740E
:104B880010F0900A17E4F0A37404F0024C37900A6E
:104B98001974FFF0A37468F0A37414F0900A17E472
:104BA800F0A37410F0024C37900A1974FFF0A37444
:104BB80068F0A37424F0900A17E4F0A37438F08026
:104BC8006E7E0A7F1E7B017AFD79E09003447407AC
:104BD800F0126A95E4F55AF55BD3E55A6480F874E7
:104BE8000E648098402B741E255AF9E4340AFA7B27
:104BF80001C001748E255BF9E43409A801FC7D012C
:104C0800D0017E007F01120AA3055A055B055B806F
:104C1800C8900A197401F0A37409F0A3748CF09079
:104C28000A17E4F0A3741EF08005800002779D90B7
:104C38000A13E0FEA3E0FFD3900A18E09F900A173A
:0C4C4800E09E4005EEF0A3EFF01277F8BC
:014C5400223D
:0378860002779DE9
:106BB300900A0DE064807024900A10E0701E900A21
:106BC3000FE07018900A12E07012900A11E0700C36
:106BD300900A13E07004A3E06401600302779D90C0
:106BE3000A15E0900A19B4040C74FFF0A37468F05A
:106BF300A3745E800A74FFF0A37468F0A3745CF05E
:0C6C0300900A17E4F0A304F01277F822C6
:1066CE00900A15E064026022900A0DE0701C900A98
:1066DE0010E07016900A12E07010900A11E0700A25
:1066EE00900A13E07002A3E0600302779D900A0FF8
:1066FE00E06401900A15703F7404F0E4900A1CF0F7
:10670E00900A1DF07D017F0E1277397D207F1212C7
:10671E0077397D087F101277397D017F0E12773918
:10672E00E4FD7F121277397D087F13127739E4FD6D
:10673E007F0E127739800D7403F0900A1C74FFF0EF
:08674E00900A1DF012780422EC
:1070DA00900A15E0B4041D900A0DE0B48116900AD6
:1070EA0010E07010900A12E0700AA3E07004A3E0A6
:1070FA006401600302779D900A1974FFF0A3746813
:10710A00F0A3745CF0900A17E4F0A304F01277F885
:01711A002252
:1074FC00900A15E0B4041B900A0DE0B40114900A34
:10750C0010E0700E900A12E07008A3E07002A3E085
:09751C00600302779D127804223D
:0378890002779DE6
:0444A100410A390093
:0673C30090034E120DEFD5
:1073C90090034EE0900355F090034FE0900354F082
:1073D900900350E0900353F0900351E0A3F0E0FCD8
:0973E900A3E0FDA3E0FEA3E0FF18
:0173F2002278
:0875FB00900024EEF0A3EFF074
:10760300900024E0900027F0900025E0A3F0E0FE36
:03761300A3E0FFF2
:017616002251
:10775B00900A39EFF0E4F5D3F5D243AF4090FEA495
:03776B00EDF0221C
:10763200EF25E0FFEE33FEC374FF9FFF74FF9EFE53
:0B764200EFF58AEEF58CC28DD28C2291
:08624E00900359EEF0A3EFF0FC
:10625600E4F570E47B0AFAF9F890035BE0FCA3E04E
:10626600FDA3E0FEA3E0FF127053EB2430FFAE70F7
:106276000570EEFD3395E0FC745F2DF58274033CEA
:10628600F583EFF090035BE0FCA3E0FDA3E0FEA343
:10629600E0FFE47B0AFAF9F812705390035B120DE3
:1062A600EFE4FBFAF9F8C3120DA240A7AF70157020
:1062B600EF6026AF70EF3395E0FE745F2FF58274C2
:1062C600033EF583E0FF900359E475F001120BC01D
:1062D60085F082F583EFF080D3900359E0FEA3E0CA
:0162E600FFB8
:0162E7002294
:106E5200900323EEF0A3EFF0A3EBF0A3EAF0A3E993
:106E6200F0A3E07013900325E0FBA3E0FAA3E0F99E
:106E720012770C900328EFF0900323E0FEA3E0FFCB
:106E8200A3E0FBA3E0FAA3E0F9A3E0FC3395E090D2
:0C6E9200032EF0A3CCF0E4A3F0026DB1DD
:103D5400556E7573656420736563746F72003C708F
:103D64003E3C6120687265663D2268747470733AE3
:103D74002F2F61636F6469732E72752F6F626F7278
:103D840075646F76616E69652D696E737472756D95
:103D9400656E742D692D7261736B686F646E7965DD
:103DA4002D6D6174657269616C792F6F626F7275C4
:103DB400646F76616E69652F6974656D2F3030307C
:103DC4003030303335393939223E427579204675E1
:103DD4006C6C2056657273696F6E3C2F613E3C2F8C
:103DE400703E003C703E3C6120687265663D22680E
:103DF400747470733A2F2F636F6D73797374656D78
:103E04002D746C742E72752F6E6F766F7374692FA8
:103E140070726F6772616D6D612D656366696E6442
:103E240065722D646C6A612D706F69736B612D69A5
:103E34002D736F6872616E656E696A612D70726F41
:103E4400736869766F6B2D6D756C74696B6F6E74C6
:103E5400726F6C6C65726F762D766E757472692DE7
:103E64006C6A756269682D62696E61726E69682D2B
:103E740066616A6C6F76223E4543206669726D778F
:103E84006172652066696E6465723C2F613E3C2FE9
:103E9400703E003C703E3C6120687265663D22685D
:103EA400747470733A2F2F626F6F7374792E746FFA
:103EB4002F7374726970656474656368223E436825
:103EC40065636B20557064617465732026204D61B1
:103ED4006E75616C733C2F613E3C2F703E00008018
:103EE40000001F000000526163636F6F6E20466C18
:103EF400617368204578706C6F7265722020444548
:103F04004D4F000000000000000000000008000009
:103F1400000002000000700000000000000A000021
:103F24000000000000000000030000000006008004
:043F34000000000089
:1044A5004109E377C188C1090443000000004409BC
:0944B500F4000000004109F820A8
:104EB4007B007A0079247D01127748EF641F600338
:104EC400024FC77F437E427D537C55AB27AA26A958
:104ED40025A824C3120DB86003024FC7AF2FAE2E0E
:104EE400AD2DAC2C1273C38F598E588D578C56E44C
:104EF400F52390001DF0A3F0E533120E2C4F29008A
:104F04004F58034F49124F5D1A4F3F1B4F441E4FDA
:104F140053234F4E254F67284F6C2A4F712F4F62F2
:104F24005A00004F7612788C405575230190001D6D
:104F34007402F0A3743AF0D208804412789E803F41
:104F440012789F803A1277AA80351269BF80301296
:104F54006A2A802B12745080261277B78021127728
:104F6400C4801C121DDE80171226C380121278A082
:104F7400800D75230190001D7405F0A37420F0903A
:104F8400001DE0F555A3E0F554754A537549427583
:104F94004853754755852B4E852A4D85294C8528C0
:104FA4004BAF59AE58AD57AC561273C38F528E5196
:104FB4008D508C4F8523537B007A007900E4FDFCEF
:104FC4000254CD7D107F111277397D207F14127722
:014FD40039A3
:014FD50022B9
:1054CD0090001FEBF0A3EAF0A3E9F0A3ECF0A3ED3D
:0154DD00F0DE
:1054DE0090001FE0FBA3E0FAA3E04A4B701590008A
:1054EE001FF0A37400F0A37447F0A3E4F0A3740DAF
:1054FE00F0804B900022E0FEA3E0FFEE3395E0FD3E
:10550E00FCAB59AA58A957A856C3120DB8500A9009
:10551E000022E558F0A3E559F0900022E0FEA3E04A
:10552E00FBAA06EA3395E0F9F8C3E5599BF559E570
:10553E00589AF558E55799F557E55698F55690004F
:10554E0022E0FEA3E0FF4E604EA37440F0C3EF9442
:10555E0040EE648094805002EFF012784740FB904A
:10556E00001FE0FBA3E0FAA3E0F9900024E0FD9019
:10557E0000297401F01276CB900024E0FFFDC39059
:10558E000023E09DF0900022E09400F0900020E4D3
:07559E008FF0120BAA80A799
:0155A50022E3
:0E6077007B017A107900900540E0FCA3E0FD6B
:10608500900023EBF0A3EAF0A3E9F0A3ECF0A3ED75
:01609500F01A
:10609600FFAE04EE3395E0FDFCAB59AA58A957A80C
:1060A60056C3120DB8500A900026E558F0A3E559DC
:1060B600F0900026E0FEA3E0FFFBAA06EA3395E097
:1060C600F9F8C3E5599BF559E5589AF558E55799F6
:1060D600F557E55698F556900026E07002A3E06065
:1060E6003012784F50FB900023E0FBA3E0FAA3E0C8
:1060F600F97D01127748EFFDC3900027E09DF090EF
:106106000026E09400F0900024E48DF0120BAA80A3
:01611600C6C2
:016117002265
:03788C00A208222D
:01789E0022C7
:01789F0022C6
:0D77AA007BFF7A3E79E27D247C000254CD05
:1069BF0078007C107D017BFF7A3F79067E007F088F
:1069CF00120AA390053BE0FCA3E0FDA3E0FEA3E0C9
:1069DF00FF9007F5E0F8A3E0F9A3E0FAA3E02FFF9B
:1069EF00EA3EFEE93DFDE83CFCEF24FFFFEE34FFFD
:1069FF00FEED34FFFDEC34FFFC901000120DEF9014
:106A0F000540E0FFA3E0901006CFF0A3EFF07B016D
:0B6A1F007A1079007D087C000254CD45
:106A2A0078007C107D017BFF7A3F790E7E007F0C17
:106A3A00120AA390053BE0FCA3E0FDA3E0FEA3E05D
:106A4A00FF9007F5E0F8A3E0F9A3E0FAA3E02FFF2F
:106A5A00EA3EFEE93DFDE83CFCEF24FFFFEE34FF91
:106A6A00FEED34FFFDEC34FFFC901004120DEF90A4
:106A7A000540E0FFA3E0901009CFF0A3EFF07B01FF
:0B6A8A007A1079007D0C7C000254CDD6
:1074500078007C107D017BFF7A3F791A7E007F12D5
:10746000120AA3901002E555F090100CE554F07B41
:0C747000017A1079007D127C000254CDDE
:0D77B7007BFF7A3F792C7D047C000254CDCD
:0D77C4007BFF7A3F79307D087C000254CDB8
:101DDE00900540E0FEA3E0FFE4FCFD90053BE0F83B
:101DEE00A3E0F9A3E0FAA3E0FB120C858E628F63E9
:101DFE007D027F0A12775B85385D85375C85365BA1
:101E0E0085355A900540E0FEA3E0FFE4FCFDAB5D96
:101E1E00AA5CA95BA85A120C858F618E608D5F8CAF
:101E2E005EAF59AE58AD57AC56EC4D4E4F700302E7
:101E3E0020D690053BE0FCA3E0FDA3E0FEA3E0FF6F
:101E4E00AB5DAA5CA95BA85AC3120DB85003021F62
:101E5E00139007F1E0FCA3E0FDA3E0FEA3E0FF90EA
:101E6E00053BE0F8A3E0F9A3E0FAA3E02FFFEA3E7A
:101E7E00FEE93DFDE83CFCAA5CA95BA85AC3120D25
:101E8E00B84003021F1330022BAE62AF63AB07AA3A
:101E9E0006C3E5619BFFE5609AFEE55F9400FDE5F4
:101EAE005E9400FC900540E0F568A3E0F5691259D8
:101EBE009C02209F20000302208EAE62AF63AB0710
:101ECE00AA06C3E5619BFFE5609AFEE55F9400FDFF
:101EDE00E55E9400FC7B017A107900122978AE62DF
:101EEE00AF63AB07AA06C3E5619BFFE5609AFEE50B
:101EFE005F9400FDE55E9400FC7B017A1079001280
:101F0E001A6402208E90053BE0FCA3E0FDA3E0FEE8
:101F1E00A3E0FFAB5DAA5CA95BA85AC3120DB85033
:101F2E0014AF5DAE5CAD5BAC5A7B017A10790012DA
:101F3E0016BB02208E9007F1E0FCA3E0FDA3E0FEAD
:101F4E00A3E0FF90053BE0F8A3E0F9A3E0FAA3E0DD
:101F5E002FFFEA3EFEE93DFDE83CFCAB5DAA5CA925
:101F6E005BA85AC3120DB870061200CE02208E90D6
:101F7E0007F1E0FCA3E0FDA3E0FEA3E0FF90053B2C
:101F8E00E0F8A3E0F9A3E0FAA3E02FFBEA3EFAE9BA
:101F9E003DF9E83CF890053FE0FFE4FCFDFEEB2F39
:101FAE00FFEE3AFEED39FDEC38FCAB5DAA5CA95BA9
:101FBE00A85AC3120DB87006122E7102208E900709
:101FCE00F1E0FCA3E0FDA3E0FEA3E0FF90053BE003
:101FDE00F8A3E0F9A3E0FAA3E02FFFEA3EFEE93D05
:101FEE00FDE83CFCA804A905AA06AB0790053FE056
:101FFE0075F002A4FFE4FCFDEB2FFFEA35F0FEEDD9
:10200E0039FDEC38FCAB5DAA5CA95BA85AC3120D76
:10201E00B87E107F00704DFB7A107D201276807E88
:10202E00107F007BFF7A3D796290032EE4F0A3745B
:10203E0084F0E4A3F0126DB17BFF7A3D79E7900353
:10204E002EE4F0A374AFF0E4A3F0126DB17BFF7A2F
:10205E003E799790032EE4F0A3744AF0E4A3F012B5
:10206E006DB1801C7B007A107D2012768078007C0A
:10207E00107D017BFF7A3D79547E007F0D120AA3FD
:10208E007B017A107900900540E0FCA3E0FD12542C
:10209E00CD900540E0FEA3E0FFE4FCFDE5612FF5E9
:1020AE0061E5603EF560ED355FF55FEC355EF55E42
:1020BE00E55D2401F55DE4355CF55CE4355BF55BCF
:0820CE00E4355AF55A021E2FF9
:0120D60022E7
:1026C300900540E0FEA3E0FFE4FCFD90053BE0F84D
:1026D300A3E0F9A3E0FAA3E0FB120C858E628F63FB
:1026E30085385D85375C85365B85355A900540E0D6
:1026F300FEA3E0FFE4FCFDAB5DAA5CA95BA85A1254
:102703000C85C006C007AE62AF63AB07AA06D0074D
:10271300D006C3EF9BF561EE9AF560ED9400F55F8B
:10272300EC9400F55E90053BE0F8A3E0F9A3E0FA32
:10273300A3E0FBC3E55D9BFFE55C9AFEE55B99FDCA
:10274300E55A9802296BAF59AE58AD57AC56EC4DCC
:102753004E4F7003022975B2F830027990053BE0C1
:10276300FCA3E0FDA3E0FEA3E0FFAB5DAA5CA95BD5
:10277300A85AC3120DB8405D9007F1E0FCA3E0FD39
:10278300A3E0FEA3E0FF90053BE0F8A3E0F9A3E09C
:10279300FAA3E02FFFEA3EFEE93DFDE83CFCAA5C1C
:1027A300A95BA85AC3120DB8502B9009E3E0FF644C
:1027B300576004EFB47718AF61AE60AD5FAC5E9065
:1027C3000540E0F568A3E0F56912488602291F1267
:1027D300607702291F12607720000302285E9005AC
:1027E3003BE0FCA3E0FDA3E0FEA3E0FFAB5DAA5C3E
:1027F300A95BA85AC3120DB840619007F1E0FCA38E
:10280300E0FDA3E0FEA3E0FF90053BE0F8A3E0F9C1
:10281300A3E0FAA3E02FFFEA3EFEE93DFDE83CFC1E
:10282300AA5CA95BA85AC3120DB8502F9009E3E024
:10283300FF64576004EFB47722AF61AE60AD5FAC65
:102843005E7B017A1079001223CEAF61AE60AD5F7B
:10285300AC5E7B017A107900121A6490053BE0FCB0
:10286300A3E0FDA3E0FEA3E0FFAB5DAA5CA95BA828
:102873005AC3120DB8400302291F9009E37457F09D
:10288300E47F03FEFDFCA85AC3120DB860030229BE
:102893001C20020302291C3001469007F1E0FCA32F
:1028A300E0FDA3E0FEA3E0FF9009F4E0F8A3E0F964
:1028B300A3E0FAA3E0FBC3120DB87024C201C2085F
:1028C3009009F4120DFB000000009009C2E0FDD353
:1028D3009403400C7BFF7F01126F3512778E40FB10
:1028E3009009F8E02400F582E43410F583E0B4E5C0
:1028F30028E49009F8F0D2019009F4120DFB0000CE
:1029030000009009C2E0D39403400E7BFFE4FD7FF7
:1029130001126F3512778E40FB1278A2900540E0CA
:10292300FEA3E0FFE4FCFDE5612FF561E5603EF504
:1029330060ED355FF55FEC355EF55EE55D2401F531
:102943005DE4355CF55CE4355BF55BE4355AF55ADB
:1029530090001FE0FCA3E0FDA3E0FEA3E02401FF41
:10296300E43EFEE43DFDE43CFC90001F120DEF024B
:042973002749D2F826
:01297700223D
:0178A00022C5
:106E9E004F5645524C4F41442020200043686970A4
:106EAE002031383020202000494320446561642081
:106EBE002020200042494E00494320494E464F2093
:106ECE005458540048455820564945575458540074
:0C6EDE00535550504F52542048544D0062
:1044BE0004080000000042054010004407F100000F
:1044CE0000004B05624E6F20466C61736820202001
:0D44DE00C102C100C10144053B0000000700
:1042CB0078F17C057D017BFF7A3779617E027F0077
:1042DB00120AA378F97C077D017BFF7A71791B7E2B
:1042EB00007F20120AA378427C057D017BFF7A7147
:1042FB00793B7E007F20120AA3E4FFFE7D80FCAB9E
:10430B000BAA0AA909A808D3120DB84018E4FBFAA6
:10431B007980F8AF0BAE0AAD09AC08120D10900501
:10432B003FEFF0800690053F7401F090053FE09061
:10433B0005FEF0786D7C057D017B017A0579427E67
:10434B00007F20120AA3C002C001788D7C057D017D
:10435B00D001D0027E007F20120AA3C002C00178D8
:10436B00B17C057D01D001D0027E007F20120AA313
:10437B00C002C00178D17C057D01D001D0027E0046
:10438B007F20120AA37F5F7E007D007C001273C327
:10439B009005ED120DEF900589E0FCA3E0FDA3E085
:1043AB00FEA3E0FF1273C3EF250BFFEE350AFEED04
:1043BB003509FDEC3508FCC004C005C006C00790EC
:1043CB0005A9E0FCA3E0FDA3E0FEA3E0FF1273C38D
:1043DB00D003D002D001D000EF2BFFEE3AFEED3927
:1043EB00FDEC38FCC004C005C006C0079005CDE04D
:1043FB00FCA3E0FDA3E0FEA3E0FF1273C3D003D048
:10440B0002D001D000EF2BFFEE3AFEED39FDEC3878
:10441B00FCC004C005C006C0079005EDE0FCA3E09E
:10442B00FDA3E0FEA3E0FF1273C3D003D002D001C3
:10443B00D000EF2BFFEE3AFEED39FDEC38FC90058A
:10444B00AD120DEF90053FE075F004A4FFE4FCFD09
:10445B009007F1E0F8A3E0F9A3E0FAA3E02FFFEA5D
:0D446B0035F0FEED39FDEC38FCA3020DEF3D
:105E8A0090002CEBF0A3EAF0A3E9F0A3ECF0A3ED69
:105E9A00F030E04A90002CE0FBA3E0FAA3E0F9A37B
:105EAA00E0FEA3E0F5828E83120AE2540FFF90000F
:105EBA0031A3E0C454F04FFF90002FE0FCA3E0FDB3
:105ECA00F5828C83EF120B21900031E0C4F854F074
:105EDA00C8A3E0C4540F488D828C83A380449000E9
:105EEA0031A3E0FF90002CE0FBA3E0FAA3E0F9A3C2
:105EFA00E0FCA3E0FDF5828C83EF120B218D828CEE
:105F0A0083A3120AE254F0FD900031E0540F4DFFD2
:105F1A00900030E02401FD90002FE034008D82F5DE
:065F2A0083EF120B21229F
:0B50ED00900024EBF0A3EAF0A3E9F030
:1050F800A37402F09007F1A3A3E0FEA3E0FF9005DC
:10510800FEE0FD7C00120B55900027E07C002FFF8D
:10511800EC3E90002AF0A3EFF0E4900028F0A3F012
:10512800900028E0FCA3E0FDD390002BE09D9000C8
:105138002AE09C50030251F8ED4C600EED20E00A85
:10514800900025E475F001120BAAED4C7016900042
:1051580024E0FBA3E0FAA3E0F9900031740FF0A378
:1051680074F88077900027E0FFA3E0FCA3E0FDC37C
:105178009FEC9400401690002BE024FFFF90002A3B
:10518800E034FFFEEDB50722ECB5061E900024E0E2
:10519800FBA3E0FAA3E0F9900028E0FCA3E0FD906F
:1051A8000031740FF0A374FF8031900027E0FFC333
:1051B800900029E09F900028E0940040229000246D
:1051C800E0FBA3E0FAA3E0F9900028E0FCA3E0FDEF
:1051D8002401FEE43C900031F0A3CEF0125E8A90E8
:1051E8000029E004F07006900028E004F00251283D
:0151F8002294
:0B16BB0090001FEBF0A3EAF0A3E9F0A1
:1016C600E4A3F0A3F0EF2401FFE43EFEE43DFDE4D5
:1016D6003CFC120E7F16FD00000000175D000000A6
:1016E6000117BA000000021A630000000317D000B9
:1016F60000000400001A567E107F007B007A10E47A
:10170600FD12768078007C107D017BFF7A39796145
:101716007E027F00120AA39007F5A3A3E0FEA3E0D2
:10172600FBAA0690053BA3A3E0FEA3E0FFEB2FFF79
:10173600EA3ECF24FFCF34FFFE1275FB900604EE7F
:10174600F0A3EFF078CA7C117D017B017A0679045B
:101756007E007F04021A537E107F007B007A10E41D
:10176600FD127680E4900604F0A3F09007F5A3A39B
:10177600E0FEA3E0FBAA0690053BA3A3E0FEA3E0E0
:10178600FFEB2FFFEA3ECF24FFCF34FFFE1275FB9F
:10179600900604EEF0A3EFF090001FE0FBA3E0FA42
:1017A600A3E0F8AC02AD037B017A0579F17E027FF6
:1017B60000021A537E107F007B007A107DFF12769E
:1017C600807B017A1079000250ED7E107F007B004D
:1017D6007A10E4FD127680300D0E78627C057D016C
:1017E6007BFF7A6E799E802FD390097BE094FF90E1
:1017F600097AE09400400E78627C057D017BFF7AD1
:101806006E79AA8012A209B003501C78627C057D0D
:10181600017BFF7A6E79B67E007F0B120AA3E4F590
:101826000BF50AF509F50890001FE0FBA3E0FAA303
:10183600E0F8AC02AD037B017A0779F97E007F20E0
:10184600120AA390001FE0FBA3E0FAA3E0F8AC02A3
:10185600AD037B017A0579627E007F0B120AA390A5
:10186600001FE0FBA3E0FAA3E02420F9E43AA80174
:10187600FCAD037B017A0579427E007F20120AA324
:1018860090056CE070357B017A05796212770CC39E
:10189600740B9FFFE49EFEC006C0077F20C0077B37
:1018A600017A05796212770C74622FF974053EFA93
:1018B6007B01D005D007D00612106390001FE0FB15
:1018C600A3E0FAA3E02420F9E43AA801FCAD037BE7
:1018D600017A0579627E007F0B120AA3AF0BAE0A6E
:1018E600AD09AC08EC4D4E4F602190001FE0FBA304
:1018F600E0FAA3E02428F9E43AA801FCAD037BFF53
:101906007A6E79C27E007F03120AA3AF0BAE0AADD0
:1019160009AC081273C390103C120DEF9007F1A3A7
:10192600A3E0FEA3E0FF9005FEE0FD7C00120B5550
:10193600EF2402FFE43EFE1275FB900587EEF0A34E
:10194600EFF09007F1A3A3E0FEA3E0FF9005FEE011
:10195600FD7C00120B55EF2403FFE43EFE1275FBDF
:101966009005A7EEF0A3EFF09007F1A3A3E0FEA386
:10197600E0FF9005FEE0FD7C00120B55EF2404FF0E
:10198600E43EFE1275FB9005CBEEF0A3EFF0900758
:10199600F1A3A3E0FEA3E0FF9005FEE0FD7C0012AC
:1019A6000B55EF2405FFE43EFE1275FB9005EBEEAA
:1019B600F0A3EFF0786D7C057D017BFF7A6E79C62A
:1019C6007E007F0B120AA390001FE0FBA3E0FAA3A0
:1019D600E02440F9E43AA801FCAD037B017A0579DD
:1019E6006D7E007F20120AA3788D7C057D017BFF2A
:1019F6007A6E79D27E007F0B120AA390001FE0FB5D
:101A0600A3E0FAA3E02460F9E43AA801FCAD037B65
:101A1600017A05798D7E007F20120AA378B17C05B4
:101A26007D017BFF7A6E79DE7E007F0B120AA39022
:101A3600001FE0FBA3E0FAA3E02480F9E43AA80142
:101A4600FCAD037B017A0579B17E007F20020AA3F3
:0D1A56007E107F007B007A10E4FD12768088
:011A63002260
:1051F9003136206269742061647220003820626946
:105209007420616472202000692070616765202024
:10521900657272006920736D616C6C206572720031
:1052290069206C6172676520657272004646207359
:10523900697A65206572720046452073697A65202E
:105249006572720032344330302020202020200043
:1052590032344330312020202020200032344330A2
:1052690032202020202020003234433034202020D6
:1052790020202000323443303820202020202000F4
:105289003234433136202020202020003234433369
:1052990032202020202020003234433634202020A0
:1052A90020202000323443313238202020202000B1
:1052B9003234433235362020202020003234433521
:1052C9003132202020202000323443313032342042
:1052D900202020003234433230343820202020006E
:1052E9006572726F722069632020200056657269A9
:0852F900667920204572720065
:1044EB00420A0000004109FD004409F900000000E8
:1044FB00C10C410A0C00410A0200410A0700440AA0
:0C450B000300000000440A08000000004B
:1068D800900331EBF0EF5403C454F0FFE5BA54CF02
:1068E8004FF5BAED543F44C090FE80F090FE887496
:1068F80001F090FE82E054BFF0C2037D207C007F4F
:10690800FF1241087F20126CBBC2CCC294C296C24F
:10691800977F647E00127632308DFD1220D740209A
:10692800127857D2CCD294D296D2977D107C007F21
:10693800FF1241087F647E00127632308DFDC3223B
:04694800D200D32284
:0878570090FE80E0547FF02256
:06754E00E054BFF07FA134
:1075540090FE86EFF07F887E1312763290FE82E0F2
:1075640020E603308DF690FE82E054BFF0E0C313B2
:027574001322E0
:1020D7003003030223CB90FE817401F090FE82E06F
:1020E70030E6F9E054BFF07FA0127554501490FE0B
:1020F700817406F090FE82E030E6F9E054BFF0A26A
:10210700032290FE817406F090FE82E030E6F9E04B
:1021170054BFF012108F7E00900332EEF0A3EFF061
:1021270064027010D20C78627C057D017BFF7A51C6
:1021370079F9801B900332E07004A3E06401701604
:10214700C20C78627C057D017BFF7A527905FE7FA0
:102157000B120AA38065900332E07003A3E0F470CA
:102167000F78627C057D017BFF7A527911FE8044EE
:10217700900332E07004A3E064FE7017900A02E057
:10218700B4011078627C057D017BFF7A52791D7E50
:10219700008021900332E07004A3E064FE701C907D
:1021A7000A02E0B4021578627C057D017BFF7A5252
:1021B70079297E007F0B120AA3C3227FC87E0012F3
:1021C7007632308DFD122C0A900332EEF0A3EFF039
:1021D700900A00EEF0A3EFF0F44E700E78627C05E3
:1021E7007D017BFF7A5279358018900A00E07004F0
:1021F700A3E064FE702878627C057D017BFF7A523C
:102207007941FE7F0B120AA3E4F50BF50AF509F5F0
:10221700089007F1120DFB00000000A20322900AAC
:1022270000E07002A3E0601E900A08E0FCA3E0FD56
:10223700A3E0FEA3E0FF9009F9120DEF8F0B8E0AC2
:102247008D098C0880149009F9120DFB000000100D
:10225700E4750B10F50AF509F508900A07E09009EF
:10226700FDF0900540E0FEA3E0FFE4FCFD9009F9D6
:10227700E0F8A3E0F9A3E0FAA3E0FBC3120DB8501E
:102287000C9007F1120DFB0000000180249005401F
:10229700E0FEA3E0FBAA06E4F9F89009F9E0FCA345
:1022A700E0FDA3E0FEA3E0FF120D109007F1120D71
:1022B700EF900A00E0FEA3E08EF0120E5222FC001F
:1022C70000230B0001231A000223290004233800EE
:1022D7000823460010235400202362004023700087
:1022E70080237E0100238C0200239A040023A80880
:1022F70000000023B678627C057D017BFF7A527966
:102307004D0223C278627C057D017BFF7A527959A1
:102317000223C278627C057D017BFF7A52796502D0
:1023270023C278627C057D017BFF7A527971022393
:10233700C278627C057D017BFF7A52797D807C784B
:10234700627C057D017BFF7A527989806E78627C99
:10235700057D017BFF7A527995806078627C057DE7
:10236700017BFF7A5279A1805278627C057D017BDF
:10237700FF7A5279AD804478627C057D017BFF7AD4
:102387005279B9803678627C057D017BFF7A527974
:10239700C5802878627C057D017BFF7A5279D180E0
:1023A7001A78627C057D017BFF7A5279DD800C7893
:1023B700627C057D017BFF7A5279E97E007F0B12F3
:0623C7000AA3D203A203E9
:0123CD0022ED
:10297800900323120DEF900327EBF0A3EAF0A3E9ED
:01298800F05E
:10298900900540E0FFA3E090032ECFF0A3EFF09075
:102999000A02E064807003022B1090032EE070029B
:1029A900A3E07003022C09900A07E090032DF09030
:1029B9000323A3E0FDA3A3E4FFFEE4FC7810120DBA
:1029C900C9AB07900323A3A3E0FEA3E4FFE4FDFC46
:1029D9007808120DC990032BEFF0900323E0FCA3B4
:1029E900E0FDA3A3E0FF90032CEFF090032A74A06D
:1029F900F090FE817401F090FE82E030E6F9E05437
:102A0900BFF090032AE0FF300C14EB540725E0FED9
:102A1900EF4EFFF012755490032BE0FF800EA3E0F8
:102A2900540725E0FEEF4EFF90032AF012755490EB
:102A3900032CE0FF12755490FE817401F090FE8220
:102A4900E030E6F9E054BFF090032AE04401FF12B8
:102A5900755490032DE0FF14F0EF603EE0600F9095
:102A6900FE81740BF090FE82E030E6F9800D90FE55
:102A790081740CF090FE82E030E6F9E054BFF090EA
:102A8900FE87E0FF900327E0FBA3E475F001120B3A
:102A9900C0A9F0FAEF120B0F80B890FE817406F00E
:102AA90090FE82E030E6F9E054BFF0900323E0F8AD
:102AB900A3E0F9A3E0FAA3E0FB900A07E0FFE4FC36
:102AC900FDFEEB2FFFEE3AFEED39FDEC38FC9003ED
:102AD90023120DEF900A07E0FFC390032FE09FF048
:102AE90090032EE09400F0AF0BAE0AAD09AC08904C
:102AF9000323E0F8A3E0F9A3E0FAA3E0FBC3120D76
:102B0900B850030229A32290032EE07002A3E070BB
:102B190003022C09900A07E090032DF0900323E0AB
:102B2900FCA3E0FDA3E0FEA3E0FFEF25E090032C6A
:102B3900F090FE817401F090FE82E030E6F9E054F5
:102B4900BFF090032CE04401FF12755490032DE06F
:102B5900FF14F0EF603EE0600F90FE81740BF0907F
:102B6900FE82E030E6F9800D90FE81740CF090FE53
:102B790082E030E6F9E054BFF090FE87E0FF900371
:102B890027E0FBA3E475F001120BC0A9F0FAEF12DC
:102B99000B0F80B890FE817406F090FE82E030E65B
:102BA900F9E054BFF0900323E0F8A3E0F9A3E0FAB9
:102BB900A3E0FB900A07E0FFE4FCFDFEEB2FFFEE2C
:102BC9003AFEED39FDEC38FC900323120DEF900A23
:102BD90007E0FFC390032FE09FF090032EE09400DD
:102BE900F0AF0BAE0AAD09AC08900323E0F8A3E0FF
:102BF900F9A3E0FAA3E0FBC3120DB85003022B10AE
:012C090022A8
:101A6400900023120DEF900027EBF0A3EAF0A3E916
:011A7400F081
:101A750090002E120DFB00000000900540E0FFA332
:101A8500E0900032CFF0A3EFF0900A02E06480709E
:101A950003021C75900032E07002A3E07003021D82
:101AA500DD900A07E090002DF0900023A3E0FDA350
:101AB500A3E4FFFEE4FC7810120DC9AB07900023E8
:101AC500A3A3E0FEA3E4FFE4FDFC7808120DC99092
:101AD500002BEFF0900023E0FCA3E0FDA3A3E0FFC3
:101AE50090002CEFF090002A74A0F090FE81740114
:101AF500F090FE82E030E6F9E054BFF090002AE075
:101B0500FF300C14EB540725E0FEEF4EFFF0127585
:101B15005490002BE0FF800EA3E0540725E0FEEF74
:101B25004EFF90002AF012755490002CE0FF1275BC
:101B35005490FE817401F090FE82E030E6F9E054A5
:101B4500BFF090002AE04401FF12755490002DE08B
:101B5500FF14F0EF7003021C08E0600F90FE817423
:101B65000BF090FE82E030E6F9800D90FE81740C5A
:101B7500F090FE82E030E6F9E054BFF090002EA32D
:101B8500A3E0FEA3E0FF900027E0FBA3E0FAA3E0BB
:101B9500F98F828E83120AE2FF90FE87E06F604123
:101BA50078627C057D017BFF7A5279F57E007F0B9B
:101BB500120AA3D209C20890002EE0FCA3E0FDA3FF
:101BC500E0FEA3E0FF900023E0F8A3E0F9A3E0FA2C
:101BD500A3E02FF546EA3EF545E93DF544E83CF539
:101BE5004390002EE0FCA3E0FDA3E0FEA3E024016A
:101BF500FFE43EFEE43DFDE43CFC90002E120DEFBB
:101C0500021B5190FE817406F090FE82E030E6F9E9
:101C1500E054BFF0900023E0F8A3E0F9A3E0FAA3B5
:101C2500E0FB900A07E0FFE4FCFDFEEB2FFFEE3A38
:101C3500FEED39FDEC38FC900023120DEF900A07FC
:101C4500E0FFC3900033E09FF0900032E09400F095
:101C5500AF0BAE0AAD09AC08900023E0F8A3E0F99C
:101C6500A3E0FAA3E0FBC3120DB85003021A9922B0
:101C7500900032E07002A3E07003021DDD900A07B8
:101C8500E090002DF0900023E0FCA3E0FDA3E0FE32
:101C9500A3E0FFEF25E090002CF090FE817401F0A9
:101CA50090FE82E030E6F9E054BFF090002CE0446D
:101CB50001FF12755490002DE0FF14F0EF70030240
:101CC5001D71E0600F90FE81740BF090FE82E03094
:101CD500E6F9800D90FE81740CF090FE82E030E60E
:101CE500F9E054BFF090002EA3A3E0FEA3E0FF901F
:101CF5000027E0FBA3E0FAA3E0F98F828E83120AA6
:101D0500E2FF90FE87E06F604178627C057D017B94
:101D1500FF7A5279F57E007F0B120AA3D209C20819
:101D250090002EE0FCA3E0FDA3E0FEA3E0FF900001
:101D350023E0F8A3E0F9A3E0FAA3E02FF546EA3E95
:101D4500F545E93DF544E83CF54390002EE0FCA35C
:101D5500E0FDA3E0FEA3E02401FFE43EFEE43DFD3B
:101D6500E43CFC90002E120DEF021CBA90FE81742B
:101D750006F090FE82E030E6F9E054BFF0900023D3
:101D8500E0F8A3E0F9A3E0FAA3E0FB900A07E0FF7F
:101D9500E4FCFDFEEB2FFFEE3AFEED39FDEC38FCE1
:101DA500900023120DEF900A07E0FFC3900033E087
:101DB5009FF0900032E09400F0AF0BAE0AAD09AC95
:101DC50008900023E0F8A3E0F9A3E0FAA3E0FBC341
:081DD500120DB85003021C7549
:011DDD0022E3
:1023CE00900023120DEF900027EBF0A3EAF0A3E9A3
:0123DE00F00E
:1023DF00900540E0FFA3E090002FCFF0A3EFF09027
:1023EF000A02E06480700302258190002FE07002E2
:1023FF00A3E07003022677900A07E090002EF0907A
:10240F000023A3E0FDA3A3E4FFFEE4FC7810120D6C
:10241F00C990002BEFF0900023A3A3E0FEA3E4FFED
:10242F00E4FDFC7808120DC990002CEFF09000230A
:10243F00E0FCA3E0FDA3E0FEA3E0FF90002DEFF092
:10244F00900A0CE025E044A090002AF090FE8174E1
:10245F0001F090FE82E030E6F9E054BFF0300C421C
:10246F0090002BE0540725E0FF90002AE04FFF1269
:10247F007554502490FE817406F090FE82E030E691
:10248F00F9E054BFF090FE817401F090FE82E030CD
:10249F00E6F9E054BFF080C890002CE0FF127554AD
:1024AF00803890002CE0540725E0FF90002AE04F81
:1024BF00FF127554502490FE817406F090FE82E056
:1024CF0030E6F9E054BFF090FE817401F090FE8287
:1024DF00E030E6F9E054BFF080C890002DE0801D99
:1024EF0090002EE0FF14F0EF6019900027E0FBA39F
:1024FF00E475F001120BC0A9F0FA120AC9FF1275A8
:10250F005480DD90FE817406F090FE82E030E6F993
:10251F00E054BFF0900023E0F8A3E0F9A3E0FAA3A2
:10252F00E0FB900A07E0FFE4FCFDFEEB2FFFEE3A25
:10253F00FEED39FDEC38FC900023120DEF900A07E9
:10254F00E0FFC3900030E09FF090002FE09400F088
:10255F00AF0BAE0AAD09AC08900023E0F8A3E0F989
:10256F00A3E0FAA3E0FBC3120DB850030223F90254
:10257F00267790002FE07002A3E070030226779079
:10258F000A07E090002EF0900023E0FCA3E0FDA3EB
:10259F00E0FEA3E0FFEF25E090002DF090FE8174A8
:1025AF0001F090FE82E030E6F9802890002DE0FFE8
:1025BF00127554502490FE817406F090FE82E03024
:1025CF00E6F9E054BFF090FE817401F090FE82E0D6
:1025DF0030E6F9E054BFF080D290002EE0FF14F007
:1025EF00EF6019900027E0FBA3E475F001120BC018
:1025FF00A9F0FA120AC9FF12755480DD90FE81749A
:10260F0006F090FE82E030E6F9E054BFF090002330
:10261F00E0F8A3E0F9A3E0FAA3E0FB900A07E0FFDC
:10262F00E4FCFDFEEB2FFFEE3AFEED39FDEC38FC3E
:10263F00900023120DEF900A07E0FFC3900030E0E7
:10264F009FF090002FE09400F0AF0BAE0AAD09ACF5
:10265F0008900023E0F8A3E0F9A3E0FAA3E0FBC39E
:10266F00120DB8500302258190FE817401F090FE87
:10267F0082E030E6F980257FA0127554502490FE39
:10268F00817406F090FE82E030E6F9E054BFF090DE
:10269F00FE817401F090FE82E030E6F9E054BFF065
:1026AF0080D590FE817406F090FE82E030E6F9E06E
:0326BF0054BFF015
:0126C20022F5
:0858DB00900336E0FFA3E0FD9D
:1058E300900539EFF0A3EDF090FE817401F090FE86
:1058F30082E030E6F980257FA0127554502490FE93
:10590300817406F090FE82E030E6F9E054BFF09037
:10591300FE817401F090FE82E030E6F9E054BFF0BE
:1059230080D5900539E0FF12755490053AE0FF12D7
:10593300755490FE817406F090FE82E030E6F9E043
:1059430054BFF090FE817401F090FE82E030E6F9DE
:1059530080257FA0127554502490FE817406F09028
:10596300FE82E030E6F9E054BFF090FE817401F06E
:1059730090FE82E030E6F9E054BFF080D590FE81DE
:105983007406F090FE82E030E6F9E054BFF07F3217
:095993007E00127632308DFD22F7
:0B567700900336E0FEA3E0FFA3E0FD7F
:1056820090033CEEF0A3EFF0A3EDF090FE817401E5
:10569200F090FE82E030E6F980257FA0127554502A
:1056A2002490FE817406F090FE82E030E6F9E05428
:1056B200BFF090FE817401F090FE82E030E6F9E0E6
:1056C20054BFF080D590033CE0FF12755490033C28
:1056D200A3E0FF12755490033EE0FF12755490FE52
:1056E200817406F090FE82E030E6F9E054BFF0905B
:1056F200FE817401F090FE82E030E6F980257FA001
:10570200127554502490FE817406F090FE82E030AF
:10571200E6F9E054BFF090FE817401F090FE82E061
:1057220030E6F9E054BFF080D590FE817406F09027
:10573200FE82E030E6F9E054BFF07F327E0012765E
:0557420032308DFD2254
:05664500900539EFF0A3
:10664A007F057E00127632308DFD90FE817401F056
:10665A0090FE82E030E6F980257FA012755450241E
:10666A0090FE817406F090FE82E030E6F9E054BFB5
:10667A00F090FE817401F090FE82E030E6F9E05479
:10668A00BFF080D5900539E0FF12755490FE8174F1
:10669A0001F090FE82E030E6F912754E90FE8174A8
:1066AA000CF090FE82E030E6F9E054BFF090FE87ED
:1066BA00E0FF90FE817406F090FE82E030E6F9E099
:0366CA0054BFF0CA
:0166CD0022AA
:08000300900336E0FEA3E0FFCC
:08000B0090033CEEF0A3EFF0BE
:100013007F057E00127632308DFD90FE817401F0F3
:1000230090FE82E030E6F980257FA01275545024BB
:1000330090FE817406F090FE82E030E6F9E054BF52
:10004300F090FE817401F090FE82E030E6F9E05416
:10005300BFF080D590033CE0FF12755490033CA39E
:10006300E0FF12755490FE817401F090FE82E0303F
:10007300E6F912754E90FE81740CF090FE82E0302A
:10008300E6F9E054BFF090FE87E0FF90FE8174062E
:0C009300F090FE82E030E6F9E054BFF08F
:01009F00223E
:10724C0090FE817401F090FE82E030E6F9E054BFCC
:10725C00F012755440089005397401F08005E490E3
:10726C000539F090FE817406F090FE82E030E6F96C
:09727C00E054BFF0900539E0FF79
:0172850022E6
:05675600900336EFF096
:10675B00E4FF12664590033AEFF0900336E0FF1228
:10676B006645900337EFF06455900336600FE0FFFA
:10677B007D551258E39003387455F0800DE0FF7D82
:10678B00CC1258E390033874CCF0900336E0FF1230
:10679B006645900339EFF0E4FF126645900339E04C
:1067AB00B507061258DB7F0022900338E0FFA3E009
:1067BB00B507061258DB7F0122900337E0FD9003EB
:1067CB0039E0B505037F0022900336E0FF1258E352
:0267DB007FFF3E
:0167DD002299
:0864A300900336EEF0A3EFF0C8
:1064AB00E4FFFE12000B90033BEFF012000390038E
:1064BB0038EFF064559003366012E0FEA3E0FF7DE9
:1064CB00551256829003397455F08010E0FEA3E00C
:1064DB00FF7DCC12568290033974CCF012000390DE
:1064EB00033AEFF0E4FFFE12000B90033AE0B5071E
:1064FB00061256777F0022900339E0FFA3E0B50721
:10650B00061256777F0122900338E0FD90033AE0A4
:10651B00B505037F0022900336E0FEA3E0FF125681
:03652B00827FFF6D
:01652E00224A
:10108F00E4900335F0A3F0A3F0A3F07E01FF7DFF02
:10109F007B017A0379391210637E017F007DFF7B1C
:1010AF00017A047939121063E4FF12724CEF604039
:1010BF00900335A3E0FF12724CEF600E900338E0FF
:1010CF0004F07006900337E004F0900336E024023A
:1010DF00F0900335E03400F0C3A3E094FF900335A4
:1010EF00E0940040CB900337A3E0FF900A02F02278
:1010FF00E4FF126645900334EFF090FE817401F027
:10110F0090FE82E030E6F980257FA01275545024BE
:10111F0090FE817406F090FE82E030E6F9E054BF55
:10112F00F090FE817401F090FE82E030E6F9E05419
:10113F00BFF080D5E4FF1275547F0112755490FEF5
:10114F00817406F090FE82E030E6F9E054BFF09033
:10115F00FE817401F090FE82E030E6F9E054BFF0BA
:10116F007FA0127554502390FE817406F090FE827A
:10117F00E030E6F9E054BFF0900A027401F09003FA
:10118F0034E0FDE4FF1258E3801790FE817406F0FF
:10119F0090FE82E030E6F9E054BFF0900A0274024C
:1011AF00F090FE817401F090FE82E030E6F9802528
:1011BF007FA0127554502490FE817406F090FE8229
:1011CF00E030E6F9E054BFF090FE817401F090FE3C
:1011DF0082E030E6F9E054BFF080D5E4FF12755499
:1011EF00900A02E0B40205E4FF12755490FE817478
:1011FF0006F090FE82E030E6F9E054BFF090FE81F9
:10120F007401F090FE82E030E6F912754EE490031F
:10121F0035F0A3F0900335E0FEA3E0FFC3EE940199
:10122F005050C3EF94FFEE9400500F90FE81740B5B
:10123F00F090FE82E030E6F9800D90FE81740CF0A4
:10124F0090FE82E030E6F9E054BFF090FE87E0FFB9
:10125F00900335E0FCA3E02439F58274033CF58359
:10126F00EFF0900336E004F070AA900335E004F03D
:10127F0080A290FE817406F090FE82E030E6F9E0E5
:10128F0054BFF090FE817401F090FE82E030E6F9D9
:10129F0080257FA0127554502490FE817406F09023
:1012AF00FE82E030E6F9E054BFF090FE817401F069
:1012BF0090FE82E030E6F9E054BFF080D5E4FF12F3
:1012CF007554900A02E0B40205E4FF127554E490DD
:1012DF000335F0A3F07FA5127554900336E004F0A8
:1012EF007006900335E004F0C3900335E09401409D
:1012FF00E490FE817406F090FE82E030E6F9E0544F
:10130F00BFF090FE817401F090FE82E030E6F9802C
:10131F00257FA0127554502490FE817406F090FE24
:10132F0082E030E6F9E054BFF090FE817401F09056
:10133F00FE82E030E6F9E054BFF080D5E4FF12758D
:10134F0054900A02E0B40205E4FF12755490FE8136
:10135F007406F090FE82E030E6F9E054BFF090FEA4
:10136F00817401F090FE82E030E6F912754EE49040
:10137F000335F0A3F0900335E0FEA3E0FFC3EE9436
:10138F00015050C3EF94FFEE9400500F90FE817404
:10139F000BF090FE82E030E6F9800D90FE81740C28
:1013AF00F090FE82E030E6F9E054BFF090FE87E067
:1013BF00FF900335E0FCA3E02439F58274043CF57B
:1013CF0083EFF0900336E004F070AA900335E00449
:1013DF00F080A290FE817406F090FE82E030E6F974
:1013EF00E054BFF078397C047D017B017A04793AAF
:1013FF007E007F0112103FEF6009900A077401F021
:10140F000214EB78397C047D017B017A04793B7EF1
:10141F00007F0212103FEF6009900A077402F0027A
:10142F0014EB78397C047D017B017A04793D7E00D1
:10143F007F0412103FEF6009900A077404F0021442
:10144F00EB78397C047D017B017A0479417E007F42
:10145F000812103FEF6008900A077408F0807D783B
:10146F00397C047D017B017A0479497E007F10125B
:10147F00103FEF6008900A077410F0805F78397C96
:10148F00047D017B017A0479597E007F2012103F81
:10149F00EF6008900A077420F0804178397C047D52
:1014AF00017B017A0479797E007F4012103FEF6053
:1014BF0008900A077440F0802378397C047D017B03
:1014CF00017A0479B97E007F8012103FEF60089097
:1014DF000A077480F08005E4900A07F0900A02E092
:1014EF006401600302161F7FA212724CEF70030299
:1014FF00161F90FE817401F090FE82E030E6F980B5
:10150F00257FA2127554502490FE817406F090FE30
:10151F0082E030E6F9E054BFF090FE817401F09064
:10152F00FE82E030E6F9E054BFF080D5E4FF12759B
:10153F005490FE817406F090FE82E030E6F9E0549C
:10154F00BFF090FE817401F090FE82E030E6F9E08A
:10155F0054BFF07FA3127554E4900335F0A3F090BD
:10156F000335E0FEA3E0FFC3EE9401505CC3EF949C
:10157F00FFEE9400500F90FE81740BF090FE82E00E
:10158F0030E6F9800D90FE81740CF090FE82E03011
:10159F00E6F9E054BFF090FE87E0FF900A07E0FD08
:1015AF00900336E02DFD900335E03400FC74392DA7
:1015BF00F58274043CF583EFF0900336E004F0708D
:1015CF009E900335E004F0809690FE817406F090B3
:1015DF00FE82E030E6F9E054BFF0900A07E0F582B2
:1015EF007583002439F9E43404FA7B0178397C04DB
:1015FF007D017E00AF8212103FEF7014900A03122C
:10160F000DFB00000100900A08120DFB0000010005
:10161F0090FE817401F090FE82E030E6F980257F24
:10162F00A0127554502490FE817406F090FE82E053
:10163F0030E6F9E054BFF090FE817401F090FE8225
:10164F00E030E6F9E054BFF080D5E4FF1275549016
:10165F000A02E0B40205E4FF127554E4900335F07A
:10166F00A3F0900A07E0FF900335E0FCA3E0FDC371
:10167F009FEC9400501F74392DF58274033CF58351
:10168F00E0FF127554900336E004F070D5900335E7
:10169F00E004F080CD90FE817406F090FE82E03081
:0B16AF00E6F9E054BFF0900A02E0FFF3
:0116BA00220D
:102C0A00900A02E0FF12724C900A02E0FBB48008BC
:102C1A00900A077401F08042EB64016003022D3EC2
:102C2A007F0F126756EF640160057E007FFE227FE8
:102C3A0010126756EF64016017900A03120DFB0029
:102C4A00000010900A08120DFB00000010022D5619
:102C5A007F80126756EF64016019900A03120DFB18
:102C6A0000000080900A08120DFB000000807E0020
:102C7A007F0122E4FF7E01FDFC900A08E0F8A3E050
:102C8A00F9A3E0FAA3E0FBC3120DB86030E49003A5
:102C9A0034F0A374A0F0900335E0FFC394B050154C
:102CAA0012724CEF6006900334E004F0900335E0B2
:102CBA002402F080E1900334E0FBB40119900A0386
:102CCA00120DFB00000100900A08120DFB00000122
:102CDA00007E007F0222EBB40219900A03120DFB58
:102CEA0000000100900A08120DFB000002007E009D
:102CFA007F0422900334E0FBB40419900A03120DF6
:102D0A00FB00000100900A08120DFB000004007E7F
:102D1A00007F0822EBB40819900A03120DFB000089
:102D2A000100900A08120DFB000008007E007F10C7
:102D3A0022022E53900A07E0C394804003022DEE2C
:102D4A007FFF7E0F1264A3EF64016004E4FEFF229A
:102D5A007F007E101264A3EF64016019900A0312C7
:102D6A000DFB00001000900A08120DFB0000100075
:102D7A007E007F20227F007E201264A3EF64016020
:102D8A0019900A03120DFB00002000900A08120D88
:102D9A00FB000020007E007F40227F007E401264FC
:102DAA00A3EF64016019900A03120DFB00004000B2
:102DBA00900A08120DFB000040007E007F80227FEF
:102DCA00007E801264A3EF64016019900A03120D59
:102DDA00FB00008000900A08120DFB000080007EB4
:102DEA00017F0022E4900334F0A374A8F090033525
:102DFA00E0FFC394B0501512724CEF600690033492
:102E0A00E004F0900335E02402F080E1900334E01E
:102E1A00FB7019900A03120DFB00010000900A08CA
:102E2A00120DFB000100007E027F0022EBB40119A3
:102E3A00900A03120DFB00010000900A08120DFB14
:102E4A00000200007E047F0022E4900A07F0900A44
:102E5A0003120DFB00000000900A08120DFB00008F
:062E6A0000007E007FFF66
:012E7000223F
:104517004209C000005009B0000000000000000080
:1045270000000000000000004209AA09B04209AEDD
:1045370009B14209C509B54209AC09B8C105C107A6
:04454700C106C104E4
:0478740053CEBF220E
:0A783300C2CC7F041277EBD2CC2206
:0F777F0012778E40FBC2CC7F061277EBD2CC2262
:107286008F6BE508600A12777FAD6C7FC51276B208
:10729600E56B6403600512777F8009E508700512C7
:1072A600778E40FBC2CCAF6B1277EBAF6D1277EBEC
:0A72B600AF6E1277EBAF6F0277EBBB
:10757600900351EFF0C2CC1277EBE4FF1277EB9059
:107586000351EFF0D2CC7F017E00127632308DFDB2
:06759600900351E0FF220A
:0D77D100C2CC1277EB300B02D2CCAFCF222E
:106D6000900341EDF0A3EAF0A3EBF0C2CC800C90CD
:106D70000341E0FF14F0EF6007E4FF1277EB80EFD0
:106D8000900344E0FF14F0EF6018E4FF1277EB90FB
:106D90000342E475F001120BC085F082F583EFF039
:106DA00080DED2CC900342E0FEA3E0AA06F97B018C
:016DB00022C0
:106F3500900351EFF0A3EDF0A3EBF012777FC2CCF5
:106F4500900351E0FF1277EB900352E0FFF46003EA
:106F55001277EB900353E0FFF460031277EBD2CC8A
:106F65007F057E00127632308DFD12778E4003123A
:086F75007833900351E0FF2284
:106C0F00900331EDF0A3EBF0EF540325E025E0FF07
:106C1F00E5A254F34FF5A275CE9C7F011278287F21
:106C2F0010126CBBD202D2CCD296D297C2033010C4
:106C3F0007900332E04404F0900331E0FFA3E0FD3E
:106C4F00125D31EF3395E0EF30E709E4FF1278285A
:066C5F00C202C322D32291
:03788F008F7222D3
:0B782800EF600443CE402253CEBF228D
:10766700D20B7F661277D1D20B7F991277D17F32F7
:097677007E00127632308DFD22F6
:10574700E4F57190033E7409F0A374B0F012788FFA
:105757001276677E007F107D007B017A0979B0128F
:1057670010637A097BB09003447401F07D037FAB2B
:10577700126D60AB019003447404F07D037F9012B7
:105787006D60AB019003447403F0E4FD7F9F126DDD
:1057970060E4F57090033EE475F001120BC085F0EC
:1057A70082F583E060330460308000AF70A807742F
:1057B70001088002C333D8FC4271E57024FB600402
:1057C7002404701574B02570F582E43409F583E07C
:1057D700FF12781C50037F80220570E570C3940880
:1057E70040B2E57170037F8022E571B4010590092D
:1057F700B08013E57154E064E060119009B1E09066
:0F58070009B5F09009B2E0049009B7F07F0022D4
:1061B300E4F57012788FC2CC7F051277EBE4FF12FF
:1061C30077EB8F70E4FF1277EBEF5270D2CC90092C
:1061D300C2E570F0C2CC7F351277EBE4FF1277EBA8
:1061E3008F70E4FF1277EBEF5270D2CC9009C3E5C6
:1061F30070F0C2CC7F151277EBE4FF1277EB8F7050
:10620300E4FF1277EBEF5270D2CCAF70EF3395E02F
:10621300FEEFF44E7018C2CC7F951277EBE4FF12B9
:1062230077EB8F70E4FF1277EBEF5270D2CC9009CB
:10623300C4E570F09009C2E0B4FF0DA3E0B4FF0819
:0B624300A3E0B4FF037F80227F002255
:037892007F002252
:10473B0090033EEFF0E4F570A37410F0A37400F057
:10474B00E4A3F0A3F0C2077F0312788FC2CC7F5A89
:10475B001277EBE4FF1277EBE4FF1277EBE4FF1237
:10476B0077EBE4FF1277EBE4FF1277EB90033FE478
:10477B0075F001120BC085F082F583EFF00570E543
:10478B007070E4D2CC90033EE0FF12788FE4F570AA
:10479B00A37410F0A37400F0C2CC7F5A1277EBE431
:1047AB00FF1277EBE4FF1277EBE4FF1277EBE4FFFA
:1047BB001277EBE4FF1277EB90033FE475F00112F5
:1047CB000BC085F082F583E06F600FD2CCE485706F
:1047DB0046F545F544F5437F81220570E57070D3AE
:1047EB00D2CC74FFFFFEFDFC901000E0F8A3E0F9C3
:1047FB00A3E0FAA3E0FBC3120DB870037F80227F06
:10480B00507E447D467C53901000E0F8A3E0F9A362
:10481B00E0FAA3E0FBC3120DB860037F81227B019A
:0B482B007A1079007D007C1012331918
:104836009003417410F0A37400F0E4F57090034106
:10484600E0FEA3E0F5828E83E0FCA3E0FDA3E0FE9C
:10485600A3E0FF1273C3900341E0FAA3E0F5828A56
:1048660083120DEF900342E02404F0900341E034FC
:1048760000F00570E570C3944040C2D2057F002267
:037895007F00224F
:037898007F00224C
:105BCD009009C5E0FEA3E0F5828E83E064D5600701
:105BDD009009C3E0B4FF037F0022D2067BFF7D0254
:105BED007F31126F3512778E40FB7F35127576EF50
:105BFD0020E1119009C2E0FD7B027F01126F351289
:105C0D00778E40FB7F327E00127632308DFDD20BC7
:105C1D007F381277D112778E5026D20F53CEBFC256
:105C2D0095C2CC00000000B295000000B2950000B6
:105C3D0000B295000000000000D295D2CC43CE40BA
:105C4D0030062F9009C3E0FD7BFF7F31126F3512B7
:105C5D00778E40FB7F351275769009C3E0FB6F6040
:105C6D000F9009C2E0FD7F01126F3512778E40FB58
:055C7D00C2067F0022B9
:106E02009009C3E0FFF4601DEF30E019D20B7FAAB6
:106E12001277D1D20B7F551277D17BFFE4FD7F0130
:106E2200126F358015D20B7F501277D1C20B7F01C2
:106E32001277D1D20BE4FF1277D17BFF7DFF7F98CF
:106E4200126F357F051275767F351275767F0022B7
:105D3100900333EFF0A3EDF0E490033DF07F031205
:105D41005747EF6002805C78357C037D017B017AE7
:105D51000979B07E007F08120AA3900333E0FFC3E4
:105D6100648094845023125747EF701578B07C09F2
:105D71007D017B017A037935FE7F0812103FEF60C8
:105D810008900333E004F080D1900333E0FEB404C3
:105D910003A38012900334E04401F0AF061261B313
:105DA100EF6008900334E04480FF22900334E04424
:105DB10002F0900333E0FF12473B900333E0FF1200
:105DC1005BCDEF7007900334E04440F0126E021295
:0E5DD10030D5D203780C7601900334E0FF2227
:10376100EB3C90616E64726F69642000100101008E
:103771000200020010F80100010001000000000039
:1037810000000000800029221520824E4F204E416A
:103791004D45202020204641543132202020FA314D
:1037A100C08ED0BC007CFB8ED8E800005E83C619B9
:1037B100BB0700FCAC84C07406B40ECD10EBF53031
:1037C100E4CD16CD190D0A4E6F6E2D7379737465A4
:1037D1006D206469736B0D0A507265737320616E9D
:1037E10079206B657920746F207265626F6F740D3B
:1037F1000A000000000000000000000000000000BE
:1038010000000000000000000000000000000000B7
:1038110000000000000000000000000000000000A7
:103821000000000000000000000000000000000097
:103831000000000000000000000000000000000087
:103841000000000000000000000000000000000077
:103851000000000000000000000000000000000067
:103861000000000000000000000000000000000057
:103871000000000000000000000000000000000047
:103881000000000000000000000000000000000037
:103891000000000000000000000000000000000027
:1038A1000000000000000000000000000000000017
:1038B1000000000000000000000000000000000007
:1038C10000000000000000000000000000000000F7
:1038D10000000000000000000000000000000000E7
:1038E10000000000000000000000000000000000D7
:1038F10000000000000000000000000000000000C7
:1039010000000000000000000000000000000000B6
:1039110000000000000000000000000000000000A6
:103921000000000000000000000000000000000096
:103931000000000000000000000000000000000086
:103941000000000000000000000000000000000076
:10395100000000000000000000000000000055AA67
:10711B005732355136342020202020080000000043
:10712B000000000000006C689E580000000000008A
:10713B003132333435363738313233000056AD7E89
:10714B009E589E58000098B89558020000100000F9
:10454B0042097A000050097C0000000000000000C6
:10455B00000000000000000050096A00000000008D
:0B456B00000000000000000000000045
:07785F00127632308DFD228C
:0500A6007E007FFF2237
:0178A10022C4
:02457600C10D75
:077866007B007A007900228B
:1073F300EFB40316D2C8C2B590FE1174FFF090FE2D
:1074030015E04410F0C2CAC2CB22EF7011D2CBD226
:0F741300B590FE11F090FE15E054EFF0C2C822C4
:106FC500E5E620E73F1273F37F307E7512763230A7
:106FD5008DFD7F307E75127632308DFD7F307E756A
:106FE500127632308DFD7F307E75127632308DFD12
:106FF5007F307E75127632308DFD7F307E7512764C
:0770050032308DFD7F0022F7
:0478780043C74022A0
:04787C00E4FEFF2205
:105B160030002D2D4845582D2D7C20303020303139
:105B260020303220303320303420303520303620BB
:105B36003037203038203039203041203042203074
:105B4600432030442030452030460D0A002D746134
:105B5600626C652D7C202D2D202D2D202D2D202DA8
:105B66002D202D2D202D2D202D2D202D2D202D2DA0
:105B7600202D2D202D2D202D2D202D2D202D2D209D
:105B86002D2D202D2D0D0A00307800203A20003AC8
:105B960020002E000D0A000D0A0D0A0072616363D3
:105BA6006F6E20617373686F6C650D0A00000000EC
:105BB60000000000000000000000000000000000DF
:075BC60000000000000000D8
:02457800C18EF2
:10599C008F678E668D658C64AE68AF69EE3395E06B
:1059AC00FDFCAB59AA58A957A856C3120DB85006FE
:1059BC00855868855969AE68AF69AB07AA06EA33A2
:1059CC0095E0F9F8C3E5599BF559E5589AF558E572
:1059DC005799F557E55698F5562002032009707D26
:1059EC00017F0E1277397F12127620EF4498FD7FDB
:1059FC00121277397D407F1012773985676F856673
:105A0C006E85656D85646C7F03127286E5694568E9
:105A1C00603BE5FC20E7FB75FC91E5FC20E7FBE532
:105A2C00EC20E0EE75FCA1756A40AF6A156AEF6078
:105A3C000EE5FC20E7FBE4FF1277EB8FEC80EB74B8
:105A4C00C02569F56974FF3568F56880BFD2CC2232
:10641400AA06F97B01E0FD90002AEDF0E4F56EAFE9
:106424006E90002AE0FEA807088003A2E713D8FBB9
:1064340054012430FFE56EFD3395E0FC742B2DF5FB
:106444008274003CF583EFF0056EE56EB408D090DD
:10645400002BE0900015120B2190002CE0900020FE
:10646400120B2190002DE090002B120B2190002E96
:10647400E0900036120B2190002FE0900041120BA7
:1064840021900030E090004C120B21900031E090FC
:0F6494000057120B21900032E0900062020B21A2
:1000CE007E107F0090001FEEF0A3EFF0E4A3F0A3EC
:1000DE00F0A3F0A3F0A3F0A3F08E648F65F566F5A0
:1000EE006778007C007DFE7BFF7A5B79B3FE7F0A2A
:1000FE00120AA3E4F568F569780A7C007DFE7BFFA1
:10010E007A5B79BDFE7F10120AA3E4F56AF56B9057
:10011E000967E0F9A3E0FAA3E0900027C9F0A3EA8B
:10012E00F0A3E9F01275DD7E107F007B007A107D62
:10013E00201276807CF07D00AF65AE6412700C8E5E
:10014E00648F6530030B7CF07D3E12700C8E648FD5
:10015E00653010067EF27F3C80047EF27F37780099
:10016E00EEF208EFF230CA067EF27F4A80047EF28B
:10017E007F4F7802EEF208EFF2A202E43325E0FFA1
:10018E00A200E4334F1470030203571460030204F9
:10019E0046900021E564F0A3E565F09009C5E0FE08
:1001AE00A3E0F5828E83E0B4C2067CF07DCC8004A1
:0D01BE007CF07D6FAF65AE6412700C8E6436
:1001CB008F65900022E02409FF900021E03400FEAF
:1001DB007B017A0979C29003447401F0126A9590FD
:1001EB000021E0FEA3E09009C21264149009C3E061
:1001FB00F46042900021E564F0A3E565F07CF17DAD
:10020B0029FFAE6412700C8E648F65900022E0247F
:10021B0009FF900021E03400FE7B017A0979C3903D
:10022B0003447401F0126A95900021E0FEA3E09064
:10023B0009C31264149009C4E0F46049900021E5ED
:10024B0064F0A3E565F07CF17D86FFAE6412700C63
:10025B008E648F65900022E02409FF900021E0342A
:10026B0000FE7B017A0979C49003447401F0126A91
:10027B0095900021E0FEA3E0AA06F97B019009C44A
:10028B00E0FD12641B780474F2F20874A2F2087495
:10029B00F2F20874B2F2900020E0245DFF90001F90
:1002AB00E03400FE9009C5E0FCA3E0AA04F97B0151
:1002BB009003447403F0126A95900020E0247FF5BC
:1002CB006990001FE03400F568300F107CF27D94CC
:0202DB007B2086
:1002DD00AF69FE126F7D8E688F6930052E7CF27DC1
:1002ED008C7B20AF69AE68126F7D8E688F69900030
:1002FD0020E024A3FF90001FE03400FE7CF27D8CF3
:10030D007B20126F7D8E688F698017900020E0240E
:10031D00A3FF90001FE03400FE7CF27D917B201244
:10032D006F7D900020E0243BFF90001FE03400A87B
:10033D0007FC7D017B017A0579627E007F0B120A35
:10034D00A3756AF4756B3902044F900023E564F0D0
:10035D00A3E565F07CF17DFDFFAE6412700C8E643B
:10036D008F65900024E02407FF900023E03400FE09
:10037D00C006C007900A03E0F8A3E0F9A3E0FAA3D2
:10038D00E0FB900A08E0FCA3E0FDA3E0FEA3E0FF84
:10039D00120D1090035B120DEFD007D00612624EB6
:1003AD00900024E02418FF900023E03400FEC006E6
:1003BD00C007900A07E0FFE4FCFDFE90035B120D01
:1003CD00EFD007D00612624E900024E02429FF9052
:1003DD000023E03400FEC006C007900A07E0FBE4EE
:0103ED00FA15
:1003EE00F9F8900A08E0FCA3E0FDA3E0FEA3E0FF0D
:1003FE00120D1090035B120DEFD007D00612624E55
:10040E00780474F2F20874A6F20874F2F20874B862
:10041E00F2900020E0243BFF90001FE03400A8077C
:10042E00FC7D017B017A0579627E007F0B120AA3A7
:10043E00756AF4756B698009201006E47802F2087B
:10044E00F2900020E02409F56790001FE03400F5DB
:10045E0066E4F56C756D20E56C25E02400F8E2FC91
:10046E0008E2FDAB6DAF67AE66126F7D8E668F676D
:10047E00056CC3E56C6480948440DC756D2030039C
:10048E005EE5CE5403FF7403D39F40539009C0E042
:10049E00FEA3E0FFEE54F0704690097AE0FCA3E074
:1004AE00FDF4703BED4C6037200034EF4E700B20A6
:1004BE0009087568F275696580067568F275696E6A
:1004CE007EF27F54AA68AB69780CE6540324309010
:1004DE00002FF0E4A3F0A3F0A3F0AD6D1265BB9076
:0504EE0009C0E054F01C
:1004F30060167EF37F23E490002FF0A3F0A3F0A314
:10050300F0FBFAAD6D1265BB300D167EF27FECE4A5
:1005130090002FF0A3F0A3F0A3F0FBFAAD6D1265EA
:10052300BBD390097BE094FF90097AE094004016D6
:100533007EF37F08E490002FF0A3F0A3F0A3F0FB79
:10054300FAAD6D1265BBE4F56C90097AE0FEA3E0A9
:10055300A86C088005CEC313CE13D8F920E01D7E06
:10056300F27F1AE56C2431FD7AF27B1E90002FE5B1
:100573006DF0E4A3F0A3F0A3F01265BB056CC3E533
:100583006C6480948840C230091E7EF27F6E7AF2DA
:100593007B7B90002FE56DF0A374F2F0A3747EF0E3
:1005A300E4A3F0AD6D1265BB900027E0FBA3E0FA76
:1005B300A3E0F9120BD645F070030206997CF07D97
:1005C3002EE4FBAF65AE64126F7D8E648F65900081
:0E05D30027E0FBA3E0FAA3E0F9EA494B6070D1
:1005E100120BD6FDACF04C6067900027A3A39000DE
:1005F10002120AE2FBAF65AE64126F7D900027E044
:10060100FBA3E0FAA3E0F9900003120C01FDACF0AA
:10061100900005120AE2FB126F7D900027E0FBA318
:10062100E0FAA3E0F9900006120C01FDACF0900095
:1006310008120AE2FB126F7D7B0AE4FDFC126F7D5A
:100641008E648F65900028E475F009120BAA8080F2
:10065100300945AF46AE45AD44AC43EC4D4E4F700D
:100661001AE56524FCFFE56434FFFE7BFF7A5B79C4
:1006710016E4900328F0126E528019E56524FCFF00
:10068100E56434FFFE7B007A00794390034474846F
:10069100F0126A958E648F657B0AE4FDFCAF65AE4E
:1006A10064126F7D8E648F65900025EEF0A3EFF0EC
:1006B1007CF37D2D12700C8E648F65900025E0FE19
:1006C100A3E0FF2435780BF2E43E18F2EF246578BD
:1006D1000DF2E43E18F2900025E0FEA3E0FF249520
:0406E100780FF2E4B8
:1006E5003E18F2EF24C57811F2E43E18F290002589
:1006F500E0FEA3E0FF24CD7813F2E43E18F2EF24E8
:100705009D7815F2E43E18F2900025E0FEA3E0FF87
:10071500246D7817F2E43E18F2EF243D7819F2E4DF
:100725003E18F2A20072024003020819900020E070
:1007350024C3FF90001FE03400FEC006C007AF0BC6
:10074500AE0AAD09AC087814120DC990035B120D01
:10075500EFD007D00612624E900020E024DDFF9016
:10076500001FE03400FEC006C007AF0BAE0AAD099E
:10077500AC08780A120DC990035B120DEFD007D0B3
:100785000612624E900020E024F7FF90001FE0342F
:1007950000FEC006C007AF0BAE0AAD09AC0890035A
:1007A5005B120DEFD007D00612624E900020E024B8
:1007B50011FF90001FE03401FE7B007A007908905C
:1007C50003447484F0126A95E4F56C756D20E56C4C
:1007D500B40403756D7CE56C25E0240AF8E2FA089B
:0507E500E2FBAF6CEF28
:1007EA003395E0FE7C007D06120B43EF256BFDEE90
:1007FA00356AFCAF03AE02AB6D126F7D056CC3E5C3
:10080A006C6480948840C2756AF4756B258006759D
:10081A006AF4756B2BE4F56C756D20E56CB4040312
:10082A00756D7C90097AE0FEA3E0A86C088005CE7D
:10083A00C313CE13D8F920E015E56C25E0240AF895
:10084A00E2FE08E2FFAB6DAD6BAC6A126F7D056C20
:10085A00C3E56C6480948840C27B0AE4FDFCAF6502
:10086A00AE64126F7D7CF47DB9E4FB126F7D7CF57A
:10087A007D1CE4FB126F7D8E648F657B0AE4FDFCB0
:10088A00126F7D7CF47DC97B20126F7D8E648F652B
:10089A009009E3E0FF64576004EFB477117CF47DBC
:1008AA00CFE4FBAF65AE64126F7D8E648F657CF515
:1008BA007D04E4FBAF65AE64126F7D7CF47DEBE4EE
:1008CA00FB126F7D8E648F657B0AE4FDFC126F7DDF
:1008DA007CF57D177B20126F7D7B017AFD79E09094
:1008EA0003447407F0126A958E648F657B0AE4FDEF
:0408FA00FC126F7D00
:1008FE007CF57D427B20126F7D8E648F657B0AE4D2
:10090E00FDFC126F7D7B0AE4FDFC126F7D7CF47D95
:10091E0099E4FB126F7D7CF47DA9E4FB126F7D8E52
:10092E00648F65E4F56C7CF27D1AE56C2431FBAFC7
:10093E0065AE64126F7D7B20E4FDFC126F7DC006F8
:10094E00C007AF6CEF3395E0FEEF25E0FFEE33FE10
:10095E00747C2FF58274093EF583E0FEA3E0FFE47C
:10096E00FCFD90035B120DEFD007D00612624E7C99
:10097E00F27D477B2F126F7DC006C007AF6CEF3341
:10098E0095E0FEEF25E0FFEE33FE746A2FF58274DC
:10099E00093EF583E0FEA3E0FFE4FCFD90035B124D
:1009AE000DEFD007D00612624E7CF27D47E4FB12AB
:1009BE006F7D8E648F65056CC3E56C648094885082
:0509CE000302093422C0
:102E71007E107F0090001FEEF0A3EFF0900321740D
:102E810000F0A37421F07B007A107D20127680A2DD
:102E9100007202400302309D300D0302309D30026A
:102EA10043E4F56FF56EF56DF56C7F03127286E400
:102EB100F567F568D3900541E09568900540E09588
:102EC10067401DE4FF1277EB74002568F5827410EA
:102ED1003567F583EFF00568E56870D8056780D43C
:102EE100D2CC80143000117B017A1079007F007EF2
:102EF100007D007C0012297878217C007D017B0116
:102F01007A1079007E037F00120AA37E107F007B76
:102F1100007A107D20127680E4F567F56890001F35
:102F2100E0FEA3E0FF7BFF7A5B7918E4900328F0D1
:102F3100126E5290001FEEF0A3EFF07BFF7A5B79E7
:102F410053E4900328F0126E5290001FEEF0A3EFAD
:102F5100F0E4F56590001FE0FEA3E0FF7BFF7A5BE4
:102F6100798EE4900328F0126E527B007A00796723
:102F71009003447402F0126A957BFF7A5B7991E4C5
:072F8100900328F0126E52CC
:102F880090001FEEF0A3EFF0E4F56490001FE0FE60
:102F9800A3E0FF900321E475F001120BC0FAA9F039
:102FA8007B019003447401F0126A9590001FEEF0C3
:102FB800A3EFF0E004F0700690001FE004F0056451
:102FC800C3E5646480949040C290001FE0FEA3E0D3
:102FD800FF7BFF7A5B7995E4900328F0126E52909C
:102FE800001FEEF0A3EFF0900322E024F0F090032E
:102FF80021E034FFF0E4F564900321E0FEA3E0F55E
:10300800828E83E0F566C3648094A04005E566B4CB
:103018007F1490001FE0FEA3E0FF7BFF7A5B7998A6
:10302800E4900328801390001FE0FEA3E0FF7B00DC
:103038007A0079669003287401F0126E5290001F8E
:10304800EEF0A3EFF0900322E004F0700690032165
:10305800E004F00564C3E56464809490409A9000AD
:103068001FE0FEA3E0FF7BFF7A5B799AE4900328D8
:08307800F0126E5290001FEEF1
:10308000F0A3EFF074102568F568E43567F567057F
:1030900065C3E565648094B05003022F5590001F0E
:1030A000E0FEA3E0FF7BFF7A5B799DE4900328F0CC
:1030B000126E5290001FEEF0A3EFF0200316900066
:1030C0001FE0FEA3E0FF7BFF7A5B79A2E490032878
:0530D000F0126E522217
:0178A20022C3
:104886008F678E668D658C64AE68AF69EE3395E092
:10489600FDFCAB59AA58A957A856C3120DB8500625
:1048A600855868855969AE68AF69AB07AA06EA33C9
:1048B60095E0F9F8C3E5599BF559E5589AF558E599
:1048C6005799F557E55698F5562002030249CF3019
:1048D600013C9009F4E0FCA3E0FDA3E0FEA3E02484
:1048E60001FFE43EFEE43DFDE43CFC9009F4120DBC
:1048F600EFE567FFE566FEE4FDFCEE4F703DF56F04
:10490600F56EE565F56DE564F56C7FD880282001C8
:104916002A9009F4E0FCA3E0FDA3E0FEA3E0FFEC8F
:104926004D4E4F701685676F85666E85656D85641D
:104936006C900A38E0FF127286D2CC7D017F0E128F
:1049460077397D807F15127739E5694568607A8504
:10495600676F85666E85656D85646C7F02127286EB
:10496600E5FC20E7FB75FC94E5FC20E7FBE5EC3075
:10497600E0EEE5FC20E7FB75FC96E5FC20E7FB8511
:0C498600EC6AE4FCFDFEE567256AF567BD
:10499200EE3566F566ED3565F565EC3564F564C3AF
:1049A200E569956AF569E5689EF568E5FC20E7FB2F
:1049B20075FCA1E5FC20E7FBAF6A156AEF600AAF60
:0E49C200EC1277EB75FCA180EFD2CC80802246
:0178A30022C2
:0178A40022C1
:0178A50022C0
:0178A60022BF
:1053F20035313200465600425600455700465700A6
:105402004200504D32354C4400504D32354C443000
:10541200005353543235564600584D3235514800E8
:10542200584D3235524800584D3235525500584D7C
:1054320032355155004F4C445F4943000000000093
:1054420057323500000000000000004D5832354C44
:10545200000000000000454E323500000000000050
:1054620000474432350000000000000020100041D7
:1054720032354C000000000000004953323557001D
:1054820000000000004E53323553000000000000BF
:105492008C128D138E1441154A164B174C1800535B
:1054A200535432355646300000004D32355000001C
:1054B20000000000004132354C00000000000000F6
:0B54C20050593235510000000000007E
:0A457A00C10F410A3820410A37C77B
:1030D5009009C5E0FEA3E0F5828E83A3A3E09003EB
:1030E5003EF07E007F0B7D007B017A057962121030
:1030F500639009C5E0FEA3E0F5828E83E0120E2CF5
:1031050031611C31FD2032163731957F322F8531E3
:10311500AF9D31E3BF3147C2317BC831C9D5312DB0
:10312500EF3283FF000032489003427401F0A3742C
:1031350003F0A3743EF07B017A057962123B6102CC
:1031450032839003427401F0A37403F0A3743EF03C
:103155007B017A0579621255A60232839003427487
:1031650001F0A37403F0A3743EF07B017A05796244
:103175001245E20232839003427401F0A37403F016
:10318500A3743EF07B017A057962123557023283CA
:103195009003427401F0A37403F0A3743EF07B0125
:1031A5007A0579621249D00232839003427401F0A4
:1031B500A37403F0A3743EF07B017A057962124D86
:1031C5008C0232839003427401F0A37403F0A3745C
:1031D5003EF07B017A057962125A5C0232839003D4
:1031E500427401F0A37403F0A3743EF07B017A05E9
:1031F5007962124C550232839003427401F0A37434
:1032050003F0A3743EF07B017A057962123F3880A2
:103215006D9003427401F0A37403F0A3743EF07B38
:10322500017A05796212530180549003427401F0CA
:10323500A37403F0A3743EF07B017A057962125FF3
:1032450030803B9009C5E0FCA3E0FDF5828C83E06E
:1032550060157E057F62AA04A9057B01900344746D
:1032650003F0126A9580179003427401F0A374036A
:10327500F0A3743EF07B017A057962125C82300519
:103285003B900819E0FCA3E0FDA3E0FEA3E0F50BED
:103295008E0A8D098C0853087FE50B2401F50BE494
:1032A500350AF50AE43509F509E43508F508AF0BE3
:1032B500AE0AAD09FC7803120DC980097B017A03BA
:1032C500793E1270978F0B8E0A8D098C08E4FFFEEC
:1032D500FD7C04AB0BAA0AA909A808D3120DB840B6
:1032E50014E4F50BF50AF509F5089007F1120DFB45
:1032F5000000000022900540E0FEA3E0FBAA06E4E2
:10330500F9F8AF0BAE0AAD09AC08120D109007F134
:03331500120DEFA7
:013318002292
:0B5C820090033FEBF0A3EAF0A3E9F071
:105C8D0078457C037D017BFF7A5479377E007F0B4D
:105C9D00120AA37B017A03794512770C900350EF1A
:105CAD00F0E490034EF074452FF9E43403FA7B01D0
:105CBD00C002C001900342E0F9A3E0FAA3E0900313
:105CCD0054C9F0A3EAF0A3E9F0D001D002125DDFD0
:105CDD007B017A03794512770C900350EFF03395E1
:105CED00E0FE90033FE0FBA3E0FAA3E0F8AC02ADC9
:105CFD00037B017A037945120AA3900342E0FBA3CB
:105D0D00E0FAA3E0F9E4120B0F90033FE0FBA3E0F0
:105D1D00FAA3E0F9900350E0FF3395E0FEE92FF987
:035D2D00EA3EFA51
:015D30002250
:07786D00D20B7FAD0277D1C1
:1070970090033F120DFB00000000120AC9B410074D
:1070A700E4FFFE7D01FC22120AC914540FF9E47FA4
:1070B70001FEFDFCA801120DDC90033F120DEF90BD
:1070C700033FE0FCA3E0FDA3E0FEA3E0FF7811127D
:0270D7000DDCCE
:0170D9002294
:0B5DDF00900351EBF0A3EAF0A3E9F001
:105DEA00E4900357F0A3F0900354E0FBA3E0FAA376
:105DFA00E0F9120AC9FB14540FF9E47F01FEFDFC15
:105E0A00A801120DDC900357EEF0A3EFF0EBB410EB
:105E1A0020900351E0FBA3E0FAA3E0F8AC02AD0343
:105E2A007BFF7A5379F27E007F03120AA3E4FEFF16
:105E3A0022900357E0FEA3E0FFC39410EE940050B3
:105E4A000F7C007D0A120B43900357EEF0A3EFF08C
:105E5A00900351A3E0FAA3E0AE02FFC006C0079088
:105E6A000357E0FEA3E0FFE4FCFD90035B120DEF95
:0F5E7A00D007D00612624E900357E0FEA3E0FF60
:015E890022F6
:0B3B610090033FEBF0A3EAF0A3E9F0B3
:103B6C0078457C037D017BFF7A5479427E007F0B84
:103B7C00120AA37B017A03794512770C900350EF5C
:103B8C00F0E490034EF09009C5E0FEA3E0F5828EC0
:103B9C0083A3E0FFB42018900350E0FD3395E0FCC4
:103BAC0074452DF58274033CF5837450F0806FEFEF
:103BBC00B43018900350E0FF3395E0FE74452FF5B8
:103BCC008274033EF5837458F080539009C5E0FE6F
:103BDC00A3E0F5828E83A3E0FFB44013900350E082
:103BEC00FD3395E0FC74452DF58274033C8015EF94
:103BFC00900350B46015E0FF3395E0FE74452FF54B
:103C0C008274033EF5837451F08013E0FF3395E02A
:103C1C00FE74452FF58274033EF583745FF09003B8
:103C2C0050E004F0E02445F9E43403FA7B01C002CF
:103C3C00C001900342E0F9A3E0FAA3E0900354C959
:103C4C00F0A3EAF0A3E9F0D001D002125DDF7B0112
:103C5C007A03794512770C900350EFF09009C5E088
:103C6C00FEA3E0F5828E83A3E0644070499003507C
:103C7C00E02445F9E43403A801FC7D017BFF7A5371
:103C8C0079F67E007F02120AA3200F779009C5E017
:103C9C00FEA3E0F5828E83A3A3E0C3941750649037
:103CAC000350E02445F9E43403A801FC7D017BFFBB
:103CBC007A5379F980469009C5E0FEA3E0FFF582BE
:103CCC008E83A3E06460703B8F828E83A3A3E0C3DA
:103CDC009414900350E050132445F9E43403A801E4
:103CEC00FC7D017BFF7A5379FC80112445F9E43487
:103CFC0003A801FC7D017BFF7A5379FF7E007F02D4
:103D0C00120AA37B017A03794512770C900350EFCA
:103D1C00F03395E0FE90033FE0FBA3E0FAA3E0F85C
:103D2C00AC02AD037B017A037945120AA390033FE1
:103D3C00E0FBA3E0FAA3E0F9900350E0FF3395E039
:073D4C00FEE92FF9EA3EFA3F
:013D5300224D
:0B55A60090033FEBF0A3EAF0A3E9F054
:1055B10078457C037D017BFF7A54794D7E007F0B1A
:1055C100120AA37B017A03794512770C900350EFFD
:1055D100F0E490034EF09009C5E0FEA3E0F5828E61
:1055E10083A3E0FFB42505900349800DEFB4750E48
:1055F1009003477437F0A3F0A37455F0800690032D
:1056010049745FF0900350E02445F9E43403FA7BD8
